:1000FA00000102030405060708091011121314155A
:100003007590F07590F08590085308F0E508B4F00A
:10001300F28590085308F0E50864F060F4120118C3
:100023008590085308F0E50864F060E54390F0C25A
:1000330090D291D292D2938590085308F0E5086448
:10004300F06005E4F5098049D290C291D292D2932F
:100053008590085308F0E50864F060057509018090
:1000630030D290D291C292D2938590085308F0E592
:100073000864F060057509028017D290D291D2927C
:10008300C2938590085308F0E50864F060A17509F0
:1000930003E508B4E00FE50925E025E024FAF5823D
:1000A300E434008026E508B4D00FE50925E025E017
:1000B30024FBF582E434008012E508B4B018E509A6
:1000C30025E025E024FCF582E43400F583E493FF86
:1000D30012010A020006E50864706003020006E5E7
:1000E3000925E025E024FDF582E43400F583E4935B
:0700F300FF12010A020006E2
:0D010A00EFC4540FFEEFC454F042068E8087
:0101170022C5
:0C011800E4FFE4FE0EBE78FC0FBF14F6FE
:0101240022B8
:03000000020125D5
:0C012500787FE4F6D8FD75810902000324
:00000001FF
