S01200004C4544204348455345522E7372656363
S11300000C942A000C9434000C9434000C943400A6
S11300100C9434000C9434000C9434000C9434008C
S11300200C9434000C9434000C9434000C9434007C
S11300300C9434000C9434000C9434000C9434006C
S11300400C9434000C9434000C9434000C9434005C
S11300500C94340011241FBECFE5D8E0DEBFCDBF21
S11300600E9436000C9462000C94000080EF84BB64
S11300702FE986E891E0215080409040E1F700C0EC
S1130080000080E885BB87EA91E60197F1F700C09C
S1130090000080E485BB87EA91E60197F1F700C090
S11300A0000080E285BB87EA91E60197F1F700C082
S11300B0000080E185BB87EA91E60197F1F700C073
S10B00C00000DFCFF894FFCF2C
S9030000FC
