:100000000C942A000C943F000C943F000C943F0089
:100010000C943F000C943F000C943F000C943F0064
:100020000C943F000C943F000C943F000C943F0054
:100030000C943F000C943F000C943F000C943F0044
:100040000C943F000C943F000C943F000C943F0034
:100050000C943F0011241FBECFE5D8E0DEBFCDBF1A
:1000600010E0A0E6B0E0E8E4F2E002C005900D92F6
:10007000AE38B107D9F70E94AE000C9422010C945F
:10008000000098B39F70282F207F922B98BBC098B8
:10009000C198C39AC29A0000C29832E43A95F1F727
:1000A00000C028B32F7030E1839FC0011124822B40
:1000B00088BBC29A0000C29883EF91E00197F1F7E4
:1000C00000C0000008958FEF87BB87E893E1019798
:1000D000F1F700C0000083E30E94410082E30E9428
:1000E000410088E20E9441008CE00E94410086E0CD
:1000F0000E94410081E00E944100089598B39F70E2
:10010000282F207F922B98BBC09AC198C29A0000DA
:10011000C29832E43A95F1F700C028B32F7030E16D
:10012000839FC0011124822B88BBC29A0000C29811
:1001300083EF91E00197F1F700C000000895CF939D
:10014000DF93EC018881882331F021960E947E00A4
:1001500089918111FBCFDF91CF910895CF93DF93E8
:1001600000D000D01F92CDB7DEB70E94630080E6BA
:1001700090E00E949F0080EC0E94410081E790E0A7
:100180000E949F002FE382E49FE021508040904036
:10019000E1F700C0000010E04AE0BE016F5F7F4F52
:1001A000812F90E00E94ED0080E80E9441008DE7E1
:1001B00090E00E949F0083E80E944100CE010196DA
:1001C0000E949F002FE38DE093E0215080409040FB
:1001D000E1F700C000001F5FDFCFBB274A3031F4DA
:1001E000992322F4BDE2909581959F4F0C94F900DC
:1001F000BB27FB015527AA27880F991FAA1FA41701
:1002000010F0A41B83955051B9F7A05DAA3308F0F4
:10021000A95DA193009779F7B111B1931192CB0128
:100220000C941201DC01FC01672F71917723E1F737
:10023000329704C07C916D9370836291AE17BF07B3
:08024000C8F30895F894FFCF04
:100248005353475F456D6265646465645F41565208
:100258000048656C6C6F20576F726C64002020201A
:0E0268002020202020202020202020202000E8
:00000001FF
