:100000000C942A000C9447000C9447000C94470071
:100010000C9447000C9447000C9447000C94470044
:100020000C9447000C9447000C9447000C94470034
:100030000C9447000C9447000C9447000C94470024
:100040000C9447000C9447000C9447000C94470014
:100050000C94470011241FBECFE5D8E0DEBFCDBF12
:1000600010E0A0E6B0E0E8EFF5E002C005900D92E8
:10007000A43DB107D9F720E0A4EDB0E001C01D9286
:10008000A63DB207E1F70E9423020C94FA020C94F9
:1000900000008E9885E090E0FC013197F1F78F9A8F
:1000A0000197F1F708958F9A85E090E0FC01319770
:1000B000F1F78E98E3E0F0E03197F1F78F98019730
:1000C000F1F7089598E043E050E025E030E08E9AA3
:1000D000FA013197F1F7882314F48F9801C08F9AB1
:1000E000F9013197F1F78E98F9013197F1F7869B75
:1000F000FECF880F915059F78E9A83E090E00197D8
:10010000F1F78F9825E030E0C9010197F1F78E985B
:10011000C9010197F1F780B38E9AF9013197F1F790
:100120008095881F8827881F0895982F20E030E049
:1001300080E045E050E0A0E8B0E08E9AFA01319707
:10014000F1F78E98FA013197F1F7869BFECF879BE6
:1001500008C0BD01022E02C0759567950A94E2F7AA
:10016000862B2F5F3F4F2830310539F78E9AE3E019
:10017000F0E03197F1F7992311F08F9A01C08F9831
:1001800025E030E0F9013197F1F78E98F9013197C8
:10019000F1F78E9AF9013197F1F7089587B38F70CF
:1001A00087BBC19AC0980000C29A000086B3807FC6
:1001B0000000C2980000C29A000096B30000C298E6
:1001C000000088238CF3C19887B3806F87BB0895A4
:1001D000382F32953F70982F9F70611102C0C098E0
:1001E00001C0C09A0000C29A28B3822F8F7040E1EC
:1001F000349F90011124282B28BB0000C2980000D6
:10020000C29A88B3282F2F7030E1939FC001112428
:10021000822B88BB0000C29800000E94CE00089587
:10022000CF93C82F8BE49DE10197F1F700C0000048
:1002300087B3806F87BBBA9AB89AB99A88B38F7020
:1002400088BBC298C198C0980000C29AC59A0000A5
:10025000C29800000E94CE0060E08C2F8C600E944B
:10026000E80060E088E20E94E800CF910895CF9313
:10027000DF93EC018881882339F0219661E00E94A8
:10028000E80089918111FACFDF91CF910895EF9223
:10029000FF920F931F93CF93DF9300D000D01F9254
:1002A000CDB7DEB77B01FE01319625E0DF011D925F
:1002B0002A95E9F7009759F035962AE030E0B90120
:1002C0000E94D2028293862F972F0097C1F7BFEF2B
:1002D000EB16FB0669F4898181111EC0FE0132967E
:1002E00000E010E00F5F1F4F81918823D9F310C009
:1002F00005E010E00E191F090BC0F80181918F0174
:1003000061E0805D0E94E8000E151F05B1F711C085
:10031000053011051CF00DC000E010E081E090E018
:100320008C0F9D1F080F191F7E0196E0E90EF11C2E
:10033000E4CF0F900F900F900F900F90DF91CF911F
:100340001F910F91FF90EF900895883230F4611162
:10035000806460E080680E94E80008951F93CF9356
:10036000DF93D82FC92F162F0E94490080EA0E94E0
:100370006200811104C00E94530080E024C08C2FD1
:100380000E946200811104C00E94530080E01BC0E3
:100390008D2F0E946200811104C00E94530080E0F2
:1003A00012C0812F0E946200811104C00E9453007C
:1003B00080E009C00E94530081EE94E00197F1F7BC
:1003C00000C0000081E0DF91CF911F9108950F934D
:1003D0001F93CF93DF93D82FC92F8B010E94490021
:1003E00080EA0E946200811104C00E94530080E0F4
:1003F00025C08C2F0E946200811104C00E9453000E
:1004000080E01CC08D2F0E946200811104C00E94F8
:10041000530080E013C00E94490081EA0E946200FC
:10042000811104C00E94530080E008C080E00E9457
:100430009500F80180830E94530081E0DF91CF9105
:100440001F910F910895CF93DF931F92CDB7DEB721
:10045000BB9AC39A80E00E94100160E080E00E9495
:10046000A50180E690E00E94370161E080E00E94F3
:10047000A50181E790E00E9437012FEB87E299E028
:10048000215080409040E1F700C0000060E081E032
:100490000E94E8008EE790E00E94370160E58091BD
:1004A000D4009091D5000E94AE01811115C060E08A
:1004B00081E00E94E80060E080E00E94A5018BE8F6
:1004C00090E00E94370161E080E00E94A5018BE985
:1004D00090E00E943701FFCF2FEB87E299E0215097
:1004E00080409040E1F700C0000061E080E00E94A1
:1004F000A5018AEA90E00E943701BE016F5F7F4F3D
:100500008091D4009091D5000E94E701811115C01F
:1005100060E081E00E94E80060E080E00E94A501C8
:100520008BE890E00E94370161E080E00E94A50125
:1005300088EB90E00E943701FFCF2FEB87E299E034
:10054000215080409040E1F700C0000060E081E071
:100550000E94E80087EC90E00E94370161E0898109
:100560000E94E80061E080E00E94A501898165E0C9
:1005700070E090E00E94470161E087E00E94A501E1
:1005800064E070E08091D4009091D5000E94470112
:100590002FEB87E299E0215080409040E1F700C0C6
:1005A0000000FFCF97FB072E16F4009407D077FDCD
:1005B00009D00E94E60207FC05D03EF49095819593
:1005C0009F4F0895709561957F4F0895AA1BBB1B9F
:1005D00051E107C0AA1FBB1FA617B70710F0A61B43
:1005E000B70B881F991F5A95A9F780959095BC0164
:0805F000CD010895F894FFCF3E
:1005F8005353475F456D6265646465645F41565255
:100608000048656C6C6F5F776F726C64210057727D
:100618006974696E67202E2E2E2E00493243206998
:100628002F6F204572726F722021007768696C65A0
:100638002077726974696E672E0052656164696E0D
:1006480067202E2E2E2E2E007768696C6520726525
:100658006164696E672E00726561645F63686172C8
:04066800203D000031
:00000001FF
