S00B00006B65792E73726563D0
S11300000C942A000C943F000C943F000C943F0085
S11300100C943F000C943F000C943F000C943F0060
S11300200C943F000C943F000C943F000C943F0050
S11300300C943F000C943F000C943F000C943F0040
S11300400C943F000C943F000C943F000C943F0030
S11300500C943F0011241FBECFE5D4E0DEBFCDBF1A
S113006010E0A0E6B0E0E4E3F1E002C005900D92F8
S1130070A037B107D9F70E946F000C9498000C9434
S1130080000088B3806F88BB20E030E0E1E0F0E05E
S1130090622F87B317BA97B3AF01022E02C0440F81
S11300A0551F0A94E2F7492B47BBB49B0CC0B59B80
S11300B006C0B69B06C0B7990BC083E005C081E0BB
S11300C003C082E001C080E0660F660F860F0895CA
S11300D02F5F3F4F24303105D9F68FEF0895CF932A
S11300E0DF93CDB7DEB760970FB6F894DEBF0FBECF
S11300F0CDBF8FE084BB15BA84B38F6084BB85B356
S1130100807F85BB80E1E0E6F0E0DE01119601909E
S11301100D928A95E1F70E9441008A30E0F7E1E010
S1130120F0E0EC0FFD1FE80FF11D808185BBF3CFDC
S1070130F894FFCF6D
S1130134000102030405060708090A0B0C0D0E0F3F
S9030000FC
