S00E000042555A5A45522E7372656334
S11300000C942A000C9434000C9434000C943400A6
S11300100C9434000C9434000C9434000C9434008C
S11300200C9434000C9434000C9434000C9434007C
S11300300C9434000C9434000C9434000C9434006C
S11300400C9434000C9434000C9434000C9434005C
S11300500C94340011241FBECFE5D8E0DEBFCDBF21
S11300600E9436000C944F000C94000012BA8DEFDD
S113007081BB12BA2FE38DE093E021508040904081
S1130080E1F700C000008DEF82BB2FE38DE093E029
S1130090215080409040E1F700C00000EACFF8947E
S10500A0FFCF8C
S9030000FC
