S00B00006C65642E73726563E4
S11300000C942A000C9434000C9434000C943400A6
S11300100C9434000C9434000C9434000C9434008C
S11300200C9434000C9434000C9434000C9434007C
S11300300C9434000C9434000C9434000C9434006C
S11300400C9434000C9434000C9434000C9434005C
S11300500C94340011241FBECFE5D4E0DEBFCDBF25
S11300600E9436000C9444000C94000015BA85B329
S1130070809585BB2FE986E891E02150804090402F
S10F0080E1F700C00000F3CFF894FFCFBC
S9030000FC
