:100000000C942A000C9434000C9434000C943400AA
:100010000C9434000C9434000C9434000C94340090
:100020000C9434000C9434000C9434000C94340080
:100030000C9434000C9434000C9434000C94340070
:100040000C9434000C9434000C9434000C94340060
:100050000C94340011241FBECFE5D8E0DEBFCDBF25
:100060000E9436000C9452000C9400008FEF87BB66
:1000700018BA31E122E293E484E838BB41E24A95C0
:10008000F1F7000028BB41E24A95F1F7000098BB68
:1000900041E24A95F1F7000088BB41E24A95F1F749
:0800A0000000EBCFF894FFCF44
:00000001FF
