:030000000200DD1E
:0C00DD00787FE4F6D8FD75810A0200036C
:1000A2002020202057454C434F4D45202020202022
:1000B20000484156452041204E494345204441597C
:0200C20020001C
:10000300C2B57F381200F312007E7F061200F3128E
:10001300007E7F0E1200F312007E7F011200F312A6
:10002300007E7F801200F312007E7BFF7A0079A2AC
:100033001200507F197E001200827FC01200F3125B
:0D004300007E7BFF7A0079B312005080FE32
:100050008B088A09890AAB08AA09A90A1200C4FFF9
:1000600060171200E97401250AF50AE43509F5095B
:0A0070007F0A7E0012008280DD226C
:0A00E900C2B4D2B312007AC2B222F0
:0A00F300C2B4C2B312007AC2B222F6
:08007A008F90D2B27F017E00DD
:10008200E4FDFCC3ED9FEC9E5015E4FBFA0BBB00B4
:0F009200010ABA04F8BBFBF50DBD00010C80E4B8
:0100A100223C
:1000C400BB010689828A83E0225002E722BBFE023A
:0900D400E32289828A83E493226D
:00000001FF
