:100000000C942A000C943F000C943F000C943F0089
:100010000C943F000C943F000C943F000C943F0064
:100020000C943F000C943F000C943F000C943F0054
:100030000C943F000C943F000C943F000C943F0044
:100040000C943F000C943F000C943F000C943F0034
:100050000C943F0011241FBECFE5D8E0DEBFCDBF1A
:1000600010E0A0E6B0E0E8ECF1E002C005900D92EF
:10007000A037B107D9F70E94D4000C94E2000C9489
:10008000000098B39F70282F207F922B98BB98B3C5
:100090009E7F98BB98B3946098BB000098B39B7FF9
:1000A00098BB32E43A95F1F700C028B330E1839F62
:1000B000C0011124922F9F70892B88BB88B3846064
:1000C00088BB000088B38B7F88BB83EF91E00197EA
:1000D000F1F700C00000089598B39F70282F207F8B
:1000E000922B98BB98B3916098BB98B3946098BBDF
:1000F000000098B39B7F98BB32E43A95F1F700C0BB
:1001000028B330E1839FC0011124922F9F70892B67
:1001100088BB88B3846088BB000088B38B7F88BBB2
:1001200083EF91E00197F1F700C0000008958FEF91
:1001300087BB87E893E10197F1F700C0000088B31F
:10014000886088BB83E30E94410082E30E944100F3
:1001500088E20E9441008CE00E94410086E00E94FB
:10016000410081E00E94410083EF91E00197F1F7A7
:1001700000C0000080E80E94410008950F931F9383
:10018000CF93DF938C01C0E0D0E003C00E946C00ED
:100190002196F801EC0FFD1F80818111F7CFDF91CF
:1001A000CF911F910F9108950E94970080E690E0F3
:1001B0000E94BE0080EC0E94410084E690E00E9414
:0801C000BE00FFCFF894FFCF51
:1001C8005353470048656C6C6F20576F726C64001E
:00000001FF
