:100000000A128A11FC2F00308A000408840A820731
:1000100000342E342E34483465346C346C346F34F0
:10002000203457346F3472346C3464342E342E34AC
:100030000034573465346C3463346F346D34653454
:0A004000003441346C346C34003499
:100C020000300A128A1128260A128A1101300A12A9
:100C12008A1128260A128A11080001300A128A1142
:100C220028260A128A1108300A128A1128260A1264
:100C32008A11080001300A128A1128260A128A1122
:100C42000C300A128A1128260A128A110800F300AF
:100C520083120313061073080A128A1142260A121B
:100C62008A118312031306150630F2003030F100A8
:100C7200F10B392EF20B392E0000831203130611E9
:100C82000800F000701C462E472E4B2E83120313D1
:100C920006164E2E831203130612F01C512E522EEC
:100CA200542E8616552E8612701D582E592E5B2EE6
:100CB20006175C2E0613F01D5F2E602E622E86171D
:100CC200632E86130800F700F501F6017B2E7508E6
:100CD200770784000A128A1103200A128A110A1263
:100CE2008A1189260A128A110130F5070318F60AB9
:100CF2000030F6077508770784000A128A1103206C
:100D02000A128A11003A031D872E882E682E0800C7
:100D1200F40074080F39F2007408F039F3008312FA
:100D2200031306147308F10004300310F10CFF3EA4
:100D3200031D962E71080A128A1142260A128A117E
:100D42008312031306150D30F100F10BA62E831248
:100D52000313061172080A128A1142260A128A1114
:100D62008312031306150D30F100F10BB62E831218
:100D7200031306110800F6007603031DC12EC22ECE
:100D8200DF2E74087F3EF9007908F5000430031065
:100D9200F50CFF3E031DC82E7508F70079080F39C0
:100DA200F80077080A128A1128260A128A1178088E
:100DB2000A128A1128260A128A11FB2E7408BF3ED3
:100DC200F9007908F50004300310F50CFF3E031D0D
:100DD200E52E7508F70079080F39F80077080A122E
:100DE2008A1128260A128A1178080A128A112826DC
:100DF2000A128A11080000300A128A1142260A12C7
:100E02008A111A30F500F830F400F40B062FF50BB6
:100E1200062F000003300A128A1128260A128A11AC
:100E22000730F5007D30F400F40B152FF50B152F6C
:100E320003300A128A1128260A128A110F30F5008D
:100E42004730F400F40B232FF50B232F282F033008
:100E52000A128A1128260A128A1102300A128A11EB
:100E620028260A128A1102300A128A1128260A1228
:100E72008A1108300A128A1128260A128A110030B1
:100E82000A128A1128260A128A110C300A128A11B1
:100E920028260A128A1100300A128A1128260A12FA
:100EA2008A1106300A128A1128260A128A110800AB
:100EB2008316031386010A128A11FC260A128A116A
:100EC2000A128A1101260A128A11F401F40A013067
:100ED2000A128A11BC260A128A1111300A128A11C8
:100EE20064260A128A110B30FC002630FB005D30AA
:100EF200FA00FA0B7A2FFB0B7A2FFC0B7A2F812F39
:100F0200F401F40A01300A128A11BC260A128A116B
:100F120019300A128A1164260A128A110A128A11D7
:100F220001260A128A11F401F40A02300A128A1105
:100F3200BC260A128A1101300A128A1164260A1288
:100F42008A1183120313A001A1010230FC00C730F1
:100F5200FB008830FA00FA0BAC2FFB0BAC2FFC0B1A
:100F6200AC2F00000A128A111B260A128A110130C4
:100F720083120313A0070318A10A0030A107210856
:100F8200803AFF0080307F02031DC92F0E302002FD
:100F9200031CCC2FCD2FA62F83120313A201A30172
:100FA2000230FC00C730FB008830FA00FA0BD72F62
:100FB200FB0BD72FFC0BD72F00000A128A110E262B
:100FC2000A128A11013083120313A2070318A30A1B
:100FD2000030A3072308803AFF0080307F02031D00
:100FE200F42F0E302202031CF72FF82FD12F612F7E
:0E0FF2000A128A11002883010A128A11592F4F
:02400E00793FF8
:00000001FF
