:100000000C942A000C943F000C943F000C943F0089
:100010000C943F000C943F000C943F000C943F0064
:100020000C943F000C943F000C943F000C943F0054
:100030000C943F000C943F000C943F000C943F0044
:100040000C943F000C943F000C943F000C943F0034
:100050000C943F0011241FBECFE5D8E0DEBFCDBF1A
:1000600010E0A0E6B0E0EEE2F1E002C005900D92F3
:10007000A037B107D9F70E9471000C9495000C9439
:10008000000088B3806F88BB80E027C097B317BAA1
:1000900097B321E030E0082E02C0220F331F0A94EC
:1000A000E2F7292B27BB90E015C066B320E130E0D2
:1000B000A901092E02C0440F551F0A94E2F7262F0A
:1000C00030E024233523232B21F4880F880F890F58
:1000D00008959F5F943048F38F5F8430B8F28FEFBC
:1000E0000895CF93DF93CDB7DEB760970FB6F8943E
:1000F000DEBF0FBECDBF84B38F6084BB85B3807F6E
:1001000085BB80E1E0E6F0E0DE01119601900D9202
:100110008A95E1F70E944100E1E0F0E0EC0FFD1F5D
:0E012000E80FF11D808185BBF5CFF894FFCF6D
:10012E00000102030405060708090A0B0C0D0E0F49
:00000001FF
