:0300000002031FD9
:0C031F00787FE4F6D8FD75810A02000327
:10021F00202020202048454C4C4F2020202020001B
:10022F0020414E442057454C434F4D4520004C43F1
:10023F00442046554354494F4E53202020004649F1
:10024F00525354204C494E45202020005345434FD4
:10025F004E44204C494E4520202000435552534FC9
:10026F0052204F4E20202000435552534F52204FC3
:10027F004646202000435552534F5220424C494E80
:10028F004B00435552534F52202052494748540078
:10029F00435552534F5220204C454654004C434433
:0C02AF00204F4646004C4344204F4E00B8
:10000300C2B57F381203351202BF7F0612033512C1
:1000130002BF7F0C1203351202BF7F011203351298
:1000230002BF7F801203351202BF7BFF7A02791F62
:100033001202E37F647E001202C37FC012033512F3
:1000430002BF7BFF7A02792F1202E37F907E0112B7
:1000530002C37F011203351202BF7BFF7A02793D8F
:100063001202E37F907E011202C37F011203351255
:1000730002BF7BFF7A02794D1202E31202BF7F9027
:100083007E011202C37F011203351202BF7FC01229
:1000930003351202BF7BFF7A02795B1202E37F9082
:1000A3007E011202C37F011203351202BF7BFF7A66
:1000B30002796A1202E31202BF7FC01203357F0E78
:1000C3001203357FF47E011202C37F01120335123E
:1000D30002BF7BFF7A0279771202E31202BF7FC06D
:1000E3001203357F0C1203357FF47E011202C37FA6
:1000F300011203351202BF7BFF7A0279841202E3F5
:100103001202BF7FC01203357F0F1203357FF47EC7
:10011300011202C37F011203351202BF7BFF7A0271
:1001230079911202E31202BF7FC01203357F1412CA
:1001330003357F647E001202C37F141203357F648C
:100143007E001202C37F141203357F647E00120205
:10015300C37F141203357F647E001202C37F14121F
:1001630003357F647E001202C37FF47E011202C353
:100173007F011203351202BF7BFF7A02799F1202BD
:10018300E31202BF7FC51203357F101203357F646C
:100193007E001202C37F101203357F647E001202B9
:1001A300C37F101203357F647E001202C37F1012D7
:1001B30003357F647E001202C37F101203357F6410
:1001C3007E001202C37FF47E011202C37F01120379
:1001D300357F0C1203351202BF7BFF7A0279AC1212
:1001E30002E37FC87E001202C3D2B57F0A12033531
:1001F3007FF47E011202C37F011203351202BF7B1B
:10020300FF7A0279B41202E31202BFC2B57F0C1265
:0C02130003357FF47E011202C302005587
:1002E3008B088A09890AAB08AA09A90A120306FF1F
:1002F300601012032B7401250AF50AE43509F50988
:0303030080E42271
:0A032B00C2B4D2B31202BBC2B22268
:0A033500C2B4C2B31202BBC2B2226E
:0802BB008F90D2B27F017E009A
:1002C300E4FDFCC3ED9FEC9E5015E4FBFA0BBB0071
:0F02D300010ABA03F8BBE8F50DBD00010C80E489
:0102E20022F9
:10030600BB010689828A83E0225002E722BBFE02F5
:09031600E32289828A83E4932228
:00000001FF
