S01700004763634170706C69636174696F6E362E7372656356
S11300000C942A000C9434000C9434000C943400A6
S11300100C9434000C9434000C9434000C9434008C
S11300200C9434000C9434000C9434000C9434007C
S11300300C9434000C9434000C9434000C9434006C
S11300400C9434000C9434000C9434000C9434005C
S11300500C94340011241FBECFE5D8E0DEBFCDBF21
S11300600E9436000C944E000C94000080EF84BB78
S113007015BA2FE986E891E0215080409040E1F7DD
S113008000C0000080EF85BB2FE986E891E0215095
S113009080409040E1F700C00000EACFF894FFCF21
S9030000FC
