:100000000C942A000C943F000C943F000C943F0089
:100010000C943F000C943F000C943F000C943F0064
:100020000C943F000C943F000C943F000C943F0054
:100030000C943F000C943F000C943F000C943F0044
:100040000C943F000C943F000C943F000C943F0034
:100050000C943F0011241FBECFE5D4E0DEBFCDBF1E
:1000600010E0A0E6B0E0E6ECF2E002C005900D92F0
:10007000A23BB107D9F70E940E010C9461010C94C8
:10008000000087B38F7087BBC19AC0980000C29AE6
:10009000000086B3807F0000C2980000C29A000072
:1000A00096B30000C298000088238CF3C19887B3F0
:1000B000806F87BB0895382F32953F70982F9F70BF
:1000C000611102C0C09801C0C09A0000C29A28B352
:1000D000822F8F7040E1349F90011124282B28BB80
:1000E0000000C2980000C29A88B3282F2F7030E118
:1000F000939FC0011124822B88BB0000C29800008E
:100100000E94410008950F931F93CF93DF938C01BA
:10011000FC018081882309F18532A9F4E801219648
:10012000F80181818053883020F461E00E945B00F7
:100130000EC061E085E20E945B0061E0F801818110
:100140000E945B0004C061E00E945B00E8018E0138
:100150000F5F1F4F89818111DFCFDF91CF911F91F9
:100160000F910895843178F4623031F0633031F0CA
:10017000613029F4806403C08C5E01C08C5A60E059
:1001800080680E945B0008950F931F93CF93DF93C5
:10019000C82F8BE49DE10197F1F700C0000087B301
:1001A000806F87BBBA9AB89AB99A88B38F7088BBA8
:1001B000C298C198C0980000C29AC59A0000C2981F
:1001C00000000E94410060E08C2F8C600E945B0068
:1001D00060E088E20E945B0060E080E40E945B00D7
:1001E000C0E6D0E000EA10E061E089910E945B0087
:1001F000C017D107C9F760E080E00E94B200DF912C
:10020000CF911F910F91089589B988E18AB986E845
:1002100080BD08955D9BFECF8CB90895BB9AC39AAB
:1002200080E00E94C40060E081E00E945B0080EA00
:1002300090E00E94830061E080E00E94B20089EAC1
:1002400090E00E9483002FE382E49FE021508040F1
:100250009040E1F700C0000060E081E00E945B0098
:1002600083E30E94040160E080E00E94B20061E04C
:1002700083E60E945B0083E60E940A012FE38DE083
:1002800093E0215080409040E1F700C00000C4E6B8
:1002900060E080E00E94B20061E08C2F0E945B0071
:1002A0008C2F0E940A012FE38DE093E021508040C3
:1002B0009040E1F700C00000CF5FCE3748F3C1E2C5
:0602C000E7CFF894FFCF28
:1002C6000C12120C000000000C1204081E000000A4
:1002D6000A15110A040000000305090B0B18180083
:1002E6001F0E0E040404040401010505151515006E
:1002F6000E11111F1F1F1F0000000000000000004C
:100306004156525F554152540054785F63686B21E1
:020316002100C4
:00000001FF
