S00E000052454C4C41592E737265634D
S11300000C942A000C9434000C9434000C943400A6
S11300100C9434000C9434000C9434000C9434008C
S11300200C9434000C9434000C9434000C9434007C
S11300300C9434000C9434000C9434000C9434006C
S11300400C9434000C9434000C9434000C9434005C
S11300500C94340011241FBECFE5D8E0DEBFCDBF21
S11300600E9436000C9450000C9400008FE088BB72
S11300708BE087BB18BA2FE38DE093E021508040DA
S11300809040E1F700C000008BE088BB2FE38DE0D7
S113009093E0215080409040E1F700C00000EACF97
S10700A0F894FFCFFE
S9030000FC
