:020000040000FA
:060000000A128A11FC2F18
:100CF8008316031386010F3083120313860008003E
:100D0800F201F3019E2EF401F5010130F4070318F6
:100D1800F50A0030F50706307502723003197402BF
:100D2800031C972E982E892E0130F2070318F30A18
:100D38000030F30771087302031DA42E70087202B5
:100D4800031CA72EA82E872E08000A128A117C26BB
:100D58000A128A11F701F80100300A128A116E2767
:100D68000A128A110130F7070318F80A0030F80749
:100D78007808803AFF0080307F02031DC52EFA30C4
:100D88007702031CC82EC92EB02EE830F0000330BD
:100D9800F1000A128A1184260A128A11F901FA014D
:100DA80001300A128A11FA260A128A110130F9074B
:100DB8000318FA0A0030FA077A08803AFF008030F0
:100DC8007F02031DE92EFA307902031CEC2EED2E6A
:100DD800D42EE830F0000330F1000A128A1184267C
:100DE8000A128A11AE2E0A128A110028F60076031A
:100DF800031DFF2E002F342F0130831203138600AA
:100E08000130F0000030F1000A128A1184260A121B
:100E18008A1102308312031386000130F00000307B
:100E2800F1000A128A1184260A128A1104308312E8
:100E3800031386000130F0000030F1000A128A1115
:100E480084260A128A11083083120313860001309F
:100E5800F0000030F1000A128A1184260A128A1161
:100E68007608031D382F392F6D2F0830831203138E
:100E780086000130F0000030F1000A128A11842641
:100E88000A128A1104308312031386000130F0001D
:100E98000030F1000A128A1184260A128A110230DF
:100EA8008312031386000130F0000030F1000A12AB
:100EB8008A1184260A128A110130831203138600CC
:100EC8000130F0000030F1000A128A1184260A125B
:100ED8008A110800F6007603031D732F742FB52FAF
:100EE80003308312031386000130F0000030F10054
:100EF8000A128A1184260A128A11063083120313F1
:100F080086000130F0000030F1000A128A118426B0
:100F18000A128A110C308312031386000130F00084
:100F28000030F1000A128A1184260A128A11093047
:100F38008312031386000130F0000030F1000A121A
:100F48008A1184260A128A11033083120313860039
:100F58000130F0000030F1000A128A1184260A12CA
:100F68008A117608031DB92FBA2FFB2F0930831277
:100F7800031386000130F0000030F1000A128A11D4
:100F880084260A128A110C3083120313860001305A
:100F9800F0000030F1000A128A1184260A128A1120
:100FA80006308312031386000130F0000030F10090
:100FB8000A128A1184260A128A1103308312031333
:100FC80086000130F0000030F1000A128A118426F0
:100FD8000A128A1109308312031386000130F000C7
:100FE8000030F1000A128A1184260A128A110800B8
:080FF80083010A128A11A92EDF
:02400E00793FF8
:00000001FF
